{"abi":[{"type":"constructor","inputs":[{"name":"_owner","type":"address","internalType":"address"}],"stateMutability":"nonpayable"},{"type":"function","name":"createSeason","inputs":[{"name":"title","type":"string","internalType":"string"},{"name":"description","type":"string","internalType":"string"},{"name":"overview","type":"string","internalType":"string"},{"name":"status","type":"uint8","internalType":"enum SeasonRegistry.SeasonStatus"},{"name":"coverImageUrl","type":"string","internalType":"string"},{"name":"prizePoolAGT","type":"uint256","internalType":"uint256"},{"name":"prizePoolUSDC","type":"uint256","internalType":"uint256"},{"name":"episode2Participants","type":"uint256","internalType":"uint256"}],"outputs":[{"name":"id","type":"uint256","internalType":"uint256"}],"stateMutability":"nonpayable"},{"type":"function","name":"incrementAuditions","inputs":[{"name":"id","type":"uint256","internalType":"uint256"}],"outputs":[],"stateMutability":"nonpayable"},{"type":"function","name":"nextSeasonId","inputs":[],"outputs":[{"name":"","type":"uint256","internalType":"uint256"}],"stateMutability":"view"},{"type":"function","name":"owner","inputs":[],"outputs":[{"name":"","type":"address","internalType":"address"}],"stateMutability":"view"},{"type":"function","name":"seasons","inputs":[{"name":"","type":"uint256","internalType":"uint256"}],"outputs":[{"name":"id","type":"uint256","internalType":"uint256"},{"name":"title","type":"string","internalType":"string"},{"name":"description","type":"string","internalType":"string"},{"name":"overview","type":"string","internalType":"string"},{"name":"status","type":"uint8","internalType":"enum SeasonRegistry.SeasonStatus"},{"name":"coverImageUrl","type":"string","internalType":"string"},{"name":"prizePoolAGT","type":"uint256","internalType":"uint256"},{"name":"prizePoolUSDC","type":"uint256","internalType":"uint256"},{"name":"episode2Participants","type":"uint256","internalType":"uint256"},{"name":"totalAuditions","type":"uint256","internalType":"uint256"},{"name":"acceptedAgents","type":"uint256","internalType":"uint256"},{"name":"totalVotes","type":"uint256","internalType":"uint256"},{"name":"createdAt","type":"uint64","internalType":"uint64"},{"name":"updatedAt","type":"uint64","internalType":"uint64"}],"stateMutability":"view"},{"type":"function","name":"setSeasonStatus","inputs":[{"name":"id","type":"uint256","internalType":"uint256"},{"name":"status","type":"uint8","internalType":"enum SeasonRegistry.SeasonStatus"}],"outputs":[],"stateMutability":"nonpayable"},{"type":"event","name":"SeasonCreated","inputs":[{"name":"id","type":"uint256","indexed":true,"internalType":"uint256"},{"name":"title","type":"string","indexed":false,"internalType":"string"},{"name":"status","type":"uint8","indexed":false,"internalType":"enum SeasonRegistry.SeasonStatus"}],"anonymous":false},{"type":"event","name":"SeasonStatusUpdated","inputs":[{"name":"id","type":"uint256","indexed":true,"internalType":"uint256"},{"name":"status","type":"uint8","indexed":false,"internalType":"enum SeasonRegistry.SeasonStatus"}],"anonymous":false}],"bytecode":{"object":"0x60803461007757601f610d2738819003918201601f19168301916001600160401b0383118484101761007b5780849260209460405283398101031261007757516001600160a01b0381169081900361007757600180555f80546001600160a01b031916919091179055604051610c9790816100908239f35b5f80fd5b634e487b7160e01b5f52604160045260245ffdfe6080806040526004361015610012575f80fd5b5f3560e01c908163087af04a14610a24575080630daa1ff1146109bb5780638b511e02146109035780638da5cb5b146108dc578063f5d709a1146107b65763fe6e690c1461005e575f80fd5b346107b2576101003660031901126107b2576004356001600160401b0381116107b25761008f903690600401610b84565b6024356001600160401b0381116107b2576100ae903690600401610b84565b6044356001600160401b0381116107b2576100cd903690600401610b84565b90600760643510156107b2576084356001600160401b0381116107b2576100f8903690600401610b84565b61010c60018060a01b035f54163314610c11565b600154925f19841461079e5760018401600155604051926101c084018481106001600160401b0382111761051e5760405284845285602085015260408401526060830152606435608083015260a082015260a43560c082015260c43560e082015260e4356101008201525f6101208201525f6101408201525f6101608201526001600160401b0342166101808201526001600160401b0342166101a0820152815f52600260205260405f208151815560208201518051906001600160401b03821161051e5781906101e06001850154610a3e565b601f811161074e575b50602090601f83116001146106e0575f926106d5575b50508160011b915f199060031b1c19161760018201555b60408201518051906001600160401b03821161051e57819061023b6002850154610a3e565b601f8111610685575b50602090601f8311600114610617575f9261060c575b50508160011b915f199060031b1c19161760028201555b60608201518051906001600160401b03821161051e5781906102966003850154610a3e565b601f81116105bc575b50602090601f8311600114610551575f92610546575b50508160011b915f199060031b1c19161760038201555b60808201516007811015610532576102e79060048301610c49565b60a08201518051906001600160401b03821161051e5761030a6005840154610a3e565b601f81116104da575b5091849391602096938790601f8311600114610436576101a0600c7f5f96ab07369efe091d3b02e3cb599d7500db7b0e1c5223e43c143a5e83f6abbe9795856103fe9661041299966001600160401b03965f9261042b575b50508160011b915f199060031b1c19161760058201555b60c0850151600682015560e0850151600782015561010085015160088201556101208501516009820155610140850151600a820155610160850151600b82015501928261018082015116831985541617845501511667ffffffffffffffff60401b82549160401b169067ffffffffffffffff60401b1916179055565b604051918291604083526040830190610b39565b610420878301606435610b77565b0390a2604051908152f35b015190505f8061036b565b90600584015f52885f20915f5b601f19851681106104c05750600c7f5f96ab07369efe091d3b02e3cb599d7500db7b0e1c5223e43c143a5e83f6abbe979560018661041299966001600160401b03966101a0966103fe9a601f198116106104a8575b505050811b016005820155610382565b01515f1960f88460031b161c191690555f8080610498565b818301518455899850600190930192918a01918a01610443565b600584015f5260205f20601f840160051c810160208510610517575b601f830160051c8201811061050c575050610313565b5f81556001016104f6565b50806104f6565b634e487b7160e01b5f52604160045260245ffd5b634e487b7160e01b5f52602160045260245ffd5b015190505f806102b5565b600385015f908152602081209350601f198516905b8181106105a4575090846001959493921061058c575b505050811b0160038201556102cc565b01515f1960f88460031b161c191690555f808061057c565b92936020600181928786015181550195019301610566565b909150600384015f5260205f20601f840160051c810160208510610605575b90849392915b601f830160051c820181106105f757505061029f565b5f81558594506001016105e1565b50806105db565b015190505f8061025a565b9250600284015f5260205f20905f935b601f198416851061066a576001945083601f19811610610652575b505050811b016002820155610271565b01515f1960f88460031b161c191690555f8080610642565b81810151835560209485019460019093019290910190610627565b909150600284015f5260205f20601f840160051c8101602085106106ce575b90849392915b601f830160051c820181106106c0575050610244565b5f81558594506001016106aa565b50806106a4565b015190505f806101ff565b9250600184015f5260205f20905f935b601f1984168510610733576001945083601f1981161061071b575b505050811b016001820155610216565b01515f1960f88460031b161c191690555f808061070b565b818101518355602094850194600190930192909101906106f0565b909150600184015f5260205f20601f840160051c810160208510610797575b90849392915b601f830160051c820181106107895750506101e9565b5f8155859450600101610773565b508061076d565b634e487b7160e01b5f52601160045260245ffd5b5f80fd5b346107b25760203660031901126107b2576004355f52600260205260405f208054600182016107e490610a97565b916107f160028201610a97565b6107fd60038301610a97565b600483015460ff169261081260058201610a97565b936006820154946007830154600884015490600985015492600a86015494600b87015496600c0154976001600160401b03996040519d8e9d8e6101c09181528160208201520161086191610b39565b8d810360408f015261087291610b39565b8c810360608e015261088391610b39565b9060808c0161089191610b77565b8a810360a08c01526108a291610b39565b9760c08a015260e089015261010088015261012087015261014086015261016085015281811661018085015260401c166101a08301520390f35b346107b2575f3660031901126107b2575f546040516001600160a01b039091168152602090f35b346107b25760403660031901126107b25760043560243560078110156107b25760207f2746e519bf82426f795c977dbfd2449bf51dce5d8b8dae2b71894d3097003fa39161095b60018060a01b035f54163314610c11565b835f52600282526109ab60405f2061097581541515610bd9565b6109828360048301610c49565b600c01805467ffffffffffffffff60401b19164260401b67ffffffffffffffff60401b16179055565b6109b86040518092610b77565ba2005b346107b25760203660031901126107b2576004355f52600260205260405f206109e681541515610bd9565b600981019081546001810180911161079e57909155600c01805467ffffffffffffffff60401b19164260401b67ffffffffffffffff60401b16179055005b346107b2575f3660031901126107b2576020906001548152f35b90600182811c92168015610a6c575b6020831014610a5857565b634e487b7160e01b5f52602260045260245ffd5b91607f1691610a4d565b90601f801991011681019081106001600160401b0382111761051e57604052565b9060405191825f8254610aa981610a3e565b908184526020946001916001811690815f14610b175750600114610ad9575b505050610ad792500383610a76565b565b5f90815285812095935091905b818310610aff575050610ad793508201015f8080610ac8565b85548884018501529485019487945091830191610ae6565b92505050610ad794925060ff191682840152151560051b8201015f8080610ac8565b91908251928382525f5b848110610b63575050825f602080949584010152601f8019910116010190565b602081830181015184830182015201610b43565b9060078210156105325752565b81601f820112156107b2578035906001600160401b03821161051e5760405192610bb8601f8401601f191660200185610a76565b828452602083830101116107b257815f926020809301838601378301015290565b15610be057565b60405162461bcd60e51b81526020600482015260096024820152681393d517d193d5539160ba1b6044820152606490fd5b15610c1857565b60405162461bcd60e51b81526020600482015260096024820152682727aa2fa7aba722a960b91b6044820152606490fd5b9060078110156105325760ff8019835416911617905556fea2646970667358221220be81517fef4f9ccec5781d32c73590da32f6806dcc0962f70741739bac46981664736f6c63430008180033","linkReferences":{}},"methodIdentifiers":{"createSeason(string,string,string,uint8,string,uint256,uint256,uint256)":"fe6e690c","incrementAuditions(uint256)":"0daa1ff1","nextSeasonId()":"087af04a","owner()":"8da5cb5b","seasons(uint256)":"f5d709a1","setSeasonStatus(uint256,uint8)":"8b511e02"},"id":17}