{"abi":[{"type":"constructor","inputs":[{"name":"_owner","type":"address","internalType":"address"},{"name":"seasonRegistry","type":"address","internalType":"address"}],"stateMutability":"nonpayable"},{"type":"function","name":"auditions","inputs":[{"name":"","type":"uint256","internalType":"uint256"}],"outputs":[{"name":"id","type":"uint256","internalType":"uint256"},{"name":"seasonId","type":"uint256","internalType":"uint256"},{"name":"agent","type":"address","internalType":"address"},{"name":"agentName","type":"string","internalType":"string"},{"name":"title","type":"string","internalType":"string"},{"name":"content","type":"string","internalType":"string"},{"name":"contentType","type":"string","internalType":"string"},{"name":"contentUrl","type":"string","internalType":"string"},{"name":"category","type":"uint8","internalType":"enum AuditionRegistry.TalentCategory"},{"name":"status","type":"uint8","internalType":"enum AuditionRegistry.AuditionStatus"},{"name":"submittedAt","type":"uint64","internalType":"uint64"},{"name":"updatedAt","type":"uint64","internalType":"uint64"}],"stateMutability":"view"},{"type":"function","name":"nextAuditionId","inputs":[],"outputs":[{"name":"","type":"uint256","internalType":"uint256"}],"stateMutability":"view"},{"type":"function","name":"owner","inputs":[],"outputs":[{"name":"","type":"address","internalType":"address"}],"stateMutability":"view"},{"type":"function","name":"seasons","inputs":[],"outputs":[{"name":"","type":"address","internalType":"contract SeasonRegistry"}],"stateMutability":"view"},{"type":"function","name":"setAuditionStatus","inputs":[{"name":"id","type":"uint256","internalType":"uint256"},{"name":"status","type":"uint8","internalType":"enum AuditionRegistry.AuditionStatus"}],"outputs":[],"stateMutability":"nonpayable"},{"type":"function","name":"submitAudition","inputs":[{"name":"seasonId","type":"uint256","internalType":"uint256"},{"name":"agentName","type":"string","internalType":"string"},{"name":"title","type":"string","internalType":"string"},{"name":"content","type":"string","internalType":"string"},{"name":"contentType","type":"string","internalType":"string"},{"name":"contentUrl","type":"string","internalType":"string"},{"name":"category","type":"uint8","internalType":"enum AuditionRegistry.TalentCategory"}],"outputs":[{"name":"id","type":"uint256","internalType":"uint256"}],"stateMutability":"nonpayable"},{"type":"event","name":"AuditionStatusUpdated","inputs":[{"name":"id","type":"uint256","indexed":true,"internalType":"uint256"},{"name":"status","type":"uint8","indexed":false,"internalType":"enum AuditionRegistry.AuditionStatus"}],"anonymous":false},{"type":"event","name":"AuditionSubmitted","inputs":[{"name":"id","type":"uint256","indexed":true,"internalType":"uint256"},{"name":"seasonId","type":"uint256","indexed":true,"internalType":"uint256"},{"name":"agent","type":"address","indexed":true,"internalType":"address"}],"anonymous":false}],"bytecode":{"object":"0x60803461009157601f61102238819003918201601f19168301916001600160401b0383118484101761009557808492604094855283398101031261009157610052602061004b836100a9565b92016100a9565b6001600281905580546001600160a01b039384166001600160a01b0319918216179091555f8054929093169116179055604051610f6490816100be8239f35b5f80fd5b634e487b7160e01b5f52604160045260245ffd5b51906001600160a01b03821682036100915756fe60806040526004361015610011575f80fd5b5f803560e01c80636b1eef4c14610bd55780638da5cb5b14610bad578063b466d8a0146101bb578063d8e714ff146100a3578063f44f30cd1461007c5763ff5d3f851461005c575f80fd5b346100795780600319360112610079576020600254604051908152f35b80fd5b5034610079578060031936011261007957546040516001600160a01b039091168152602090f35b50346100795760403660031901126100795760043560243560048110156101b7576001546001600160a01b0316330361018657818352600360205260408320805415610155577fba5ceb8006509ade00f41a081757f1c9d4942fc8373b61336b8a5c05195526a79161014460086020930161011e8382610f0f565b805467ffffffffffffffff60501b19164260501b67ffffffffffffffff60501b16179055565b6101516040518092610e48565ba280f35b60405162461bcd60e51b81526020600482015260096024820152681393d517d193d5539160ba1b6044820152606490fd5b60405162461bcd60e51b81526020600482015260096024820152682727aa2fa7aba722a960b91b6044820152606490fd5b8280fd5b50346106985760e0366003190112610698576024356001600160401b038111610698576101ec903690600401610e70565b906044356001600160401b0381116106985761020c903690600401610e70565b916064356001600160401b0381116106985761022c903690600401610e70565b6084356001600160401b0381116106985761024b903690600401610e70565b60a4356001600160401b0381116106985761026a903690600401610e70565b91600860c4351015610698575f805460405163f5d709a160e01b815260048035908201529190829060249082906001600160a01b03165afa90811561068d575f91610adc575b5015610aa457600254955f198714610a90576001870160025560405194856101808101106001600160401b036101808801111761067957610180860160405287865260043560208701523360408701526060860152608085015260a084015260c083015260e082015260c4356101008201525f6101208201526001600160401b0342166101408201526001600160401b034216610160820152825f52600360205260405f2081518155602082015160018201556002810160018060a01b036040840151166bffffffffffffffffffffffff60a01b82541617905560608201518051906001600160401b0382116106795781906103af6003850154610d07565b601f8111610a40575b50602090601f83116001146109d2575f926109c7575b50508160011b915f199060031b1c19161760038201555b60808201518051906001600160401b03821161067957819061040a6004850154610d07565b601f8111610977575b50602090601f8311600114610909575f926108fe575b50508160011b915f199060031b1c19161760048201555b60a08201518051906001600160401b0382116106795781906104656005850154610d07565b601f81116108ae575b50602090601f8311600114610840575f92610835575b50508160011b915f199060031b1c19161760058201555b60c08201518051906001600160401b0382116106795781906104c06006850154610d07565b601f81116107e5575b50602090601f8311600114610777575f9261076c575b50508160011b915f199060031b1c19161760068201555b60e08201518051906001600160401b038211610679576105196007840154610d07565b601f8111610728575b50602090601f83116001146106bb5760089392915f91836106b0575b50508160011b915f199060031b1c19161760078201555b01610100820151600881101561069c5760ff8019835416911617815561012082015191600483101561069c576101606001600160401b039161059a6105e89585610f0f565b6101408101518454929091015171ffffffffffffffffffffffffffffffff00001990921660109190911b69ffffffffffffffff00001617911660501b67ffffffffffffffff60501b16179055565b5f546001600160a01b031691823b15610698575f8093602460405180968193630daa1ff160e01b835260043560048401525af1801561068d5761065c575b60209250604051913390827f1f640f253218929795969d54a800189548f9030a5c85af29b16a48c4fd0655f66004359280a48152f35b90506001600160401b038211610679576020916040525f90610626565b634e487b7160e01b5f52604160045260245ffd5b6040513d5f823e3d90fd5b5f80fd5b634e487b7160e01b5f52602160045260245ffd5b015190505f8061053e565b90601f19831691600785015f5260205f20925f5b81811061071057509160019391856008979694106106f8575b505050811b016007820155610555565b01515f1960f88460031b161c191690555f80806106e8565b929360206001819287860151815501950193016106cf565b600784015f5260205f20601f840160051c810160208510610765575b601f830160051c8201811061075a575050610522565b5f8155600101610744565b5080610744565b015190505f806104df565b9250600684015f5260205f20905f935b601f19841685106107ca576001945083601f198116106107b2575b505050811b0160068201556104f6565b01515f1960f88460031b161c191690555f80806107a2565b81810151835560209485019460019093019290910190610787565b909150600684015f5260205f20601f840160051c81016020851061082e575b90849392915b601f830160051c820181106108205750506104c9565b5f815585945060010161080a565b5080610804565b015190505f80610484565b9250600584015f5260205f20905f935b601f1984168510610893576001945083601f1981161061087b575b505050811b01600582015561049b565b01515f1960f88460031b161c191690555f808061086b565b81810151835560209485019460019093019290910190610850565b909150600584015f5260205f20601f840160051c8101602085106108f7575b90849392915b601f830160051c820181106108e957505061046e565b5f81558594506001016108d3565b50806108cd565b015190505f80610429565b9250600484015f5260205f20905f935b601f198416851061095c576001945083601f19811610610944575b505050811b016004820155610440565b01515f1960f88460031b161c191690555f8080610934565b81810151835560209485019460019093019290910190610919565b909150600484015f5260205f20601f840160051c8101602085106109c0575b90849392915b601f830160051c820181106109b2575050610413565b5f815585945060010161099c565b5080610996565b015190505f806103ce565b9250600384015f5260205f20905f935b601f1984168510610a25576001945083601f19811610610a0d575b505050811b0160038201556103e5565b01515f1960f88460031b161c191690555f80806109fd565b818101518355602094850194600190930192909101906109e2565b909150600384015f5260205f20601f840160051c810160208510610a89575b90849392915b601f830160051c82018110610a7b5750506103b8565b5f8155859450600101610a65565b5080610a5f565b634e487b7160e01b5f52601160045260245ffd5b60405162461bcd60e51b815260206004820152601060248201526f14d15054d3d397d393d517d193d5539160821b6044820152606490fd5b90503d805f833e610aed8183610d3f565b8101906101c0818303126106985780519160208201516001600160401b0381116106985781610b1d918401610eb6565b5060408201516001600160401b0381116106985781610b3d918401610eb6565b5060608201516001600160401b0381116106985781610b5d918401610eb6565b506007608083015110156106985760a0820151916001600160401b03831161069857610b916101a092610ba6948301610eb6565b50610b9f6101808201610efb565b5001610efb565b505f6102b0565b34610698575f366003190112610698576001546040516001600160a01b039091168152602090f35b34610698576020366003190112610698576004355f52600360205260405f208054600182015491600160a01b6001900360028201541660038201610c1890610d60565b91610c2560048201610d60565b610c3160058301610d60565b610c3d60068401610d60565b91610c4a60078501610d60565b93600801549560ff8716976001600160401b03966040519a610180928c5260208c015260408b01528060608b01528901610c8391610e23565b88810360808a0152610c9491610e23565b87810360a0890152610ca591610e23565b86810360c0880152610cb691610e23565b85810360e0870152610cc791610e23565b91600884101561069c578493610100850152610ced610120850160ff8360081c16610e48565b818160101c1661014085015260501c166101608301520390f35b90600182811c92168015610d35575b6020831014610d2157565b634e487b7160e01b5f52602260045260245ffd5b91607f1691610d16565b90601f801991011681019081106001600160401b0382111761067957604052565b9060405191825f8254610d7281610d07565b908184526020946001916001811690815f14610de05750600114610da2575b505050610da092500383610d3f565b565b5f90815285812095935091905b818310610dc8575050610da093508201015f8080610d91565b85548884018501529485019487945091830191610daf565b92505050610da094925060ff191682840152151560051b8201015f8080610d91565b5f5b838110610e135750505f910152565b8181015183820152602001610e04565b90602091610e3c81518092818552858086019101610e02565b601f01601f1916010190565b90600482101561069c5752565b6001600160401b03811161067957601f01601f191660200190565b81601f8201121561069857803590610e8782610e55565b92610e956040519485610d3f565b8284526020838301011161069857815f926020809301838601378301015290565b81601f82011215610698578051610ecc81610e55565b92610eda6040519485610d3f565b8184526020828401011161069857610ef89160208085019101610e02565b90565b51906001600160401b038216820361069857565b90600481101561069c5761ff0082549160081b169061ff00191617905556fea26469706673582212200bdaa499675ae000023790eea369e1aa36a2c00a7cc05a8ceeecc806f7add89764736f6c63430008180033","linkReferences":{}},"methodIdentifiers":{"auditions(uint256)":"6b1eef4c","nextAuditionId()":"ff5d3f85","owner()":"8da5cb5b","seasons()":"f44f30cd","setAuditionStatus(uint256,uint8)":"d8e714ff","submitAudition(uint256,string,string,string,string,string,uint8)":"b466d8a0"},"id":16}